:020000040800F2
:10000000E83C0020D1010008CD010008BB05000834
:10001000CD010008CD010008CD010008000000005E
:10002000000000000000000000000000713C00081B
:10003000CD010008000000001D3D0008753D0008CE
:10004000CD010008CD010008CD010008CD01000858
:10005000CD010008CD01000811170008CD010008EE
:10006000CD010008CD010008CD01000839170008B6
:10007000CD010008CD010008CD010008FD170008E2
:10008000CD010008CD010008CD010008CD01000818
:10009000CD010008CD010008CD010008CD01000808
:1000A000CD010008CD010008CD010008CD010008F8
:1000B000CD010008CD010008CD010008613B00081A
:1000C0006D3B0008CD010008CD010008CD010008FE
:1000D000CD010008CD010008CD010008CD010008C8
:1000E000CD010008CD010008CD010008CD010008B8
:1000F000CD010008CD010008CD010008CD010008A8
:10010000CD010008CD010008CD010008CD01000897
:10011000CD010008CD010008CD010008CD01000887
:10012000CD010008CD010008CD010008CD01000877
:10013000CD010008CD010008CD010008CD01000867
:10014000CD010008CD010008CD010008CD01000857
:10015000CD010008CD010008CD010008CD01000847
:10016000CD010008CD010008CD010008CD01000837
:10017000CD010008CD010008CD010008CD01000827
:10018000CD010008CD01000808B501460420002279
:1001900000F00AFA08BD00BF30B401F0030292007B
:1001A0000F2494408908084B023153F8215025EA66
:1001B000040443F8214053F821409040204343F881
:1001C000210030BC704700BF00380140FEE700BF8F
:1001D00008B50C4B0C4A03E0116819600433043273
:1001E0000A498B42F8D30A480A494FF00002884274
:1001F000B8BF40F8042BFADB00F04CFA00F088F8A6
:1002000008BD00BF000000201CB40008B80000209A
:10021000B8000020E4340020052834D8DFE800F0DE
:10022000030B141C242C234A1188234B03EB81035A
:100230001B68536027E01F4A1188204B03EB8103A2
:1002400053F8F83C53601EE01A4A11881C4B03EB2C
:1002500081031B68536016E0164A1188194B03EBA3
:1002600081031B6853600EE0124A1188164B03EBA2
:1002700081031B68536006E00E4A1188134B03EBA1
:1002800081031B6853600B4B1A880132104B1340DB
:10029000002B05DA013B6FEA83536FEA9353013376
:1002A000044A138092ED010AF7EE007A30EE270A35
:1002B000704700BFB8000020F4440008EC55000867
:1002C000F4640008F4740008F4840008F49400084E
:1002D000FF03008008B50C4B1C7A3F2C0CD8002083
:1002E000FFF79AFF094B03EB840484ED000A064AEA
:1002F000137A01331372EEE70022034B1A7203489C
:10030000402101F011FBE6E7B80000208C1300202B
:1003100000B589B001A801F0C7FA4FF40063069355
:10032000064B0493064B0593064B079301238DF868
:10033000053001A801F0CEFAFFF7CCFF9024002091
:1003400090140020D5020008090741EA8010024BF2
:10035000C3F88400704700BF00380240014B1860AA
:10036000704700BF6800474210B4294B9B6803F0F8
:100370000C03042B05D0082B06D053BB254B036080
:1003800029E0254B036026E0214B5A685B6803F0A7
:100390003F0312F4800F09D01F4AB2FBF3F21C4B4B
:1003A0005B68C3F3881303FB02F208E0194AB2FB4F
:1003B000F3F3174A5168C1F3881101FB03F2144BA0
:1003C0005B68C3F3014301335B00B2FBF3F30360EB
:1003D00001E0104B03600E4A9368C3F303130F4907
:1003E000CC5CE4B20368E34043609468C4F38224C5
:1003F0000C5DE4B223FA04F484609268C2F34232E2
:100400008A5CD2B2D340C3605DF8044B704700BF32
:10041000003802400024F40000127A00000000209E
:10042000014B1860704700BF5C01474221B1054B8A
:100430001A6B104318637047024A136B23EA0000DB
:10044000106370470038024021B1054B1A6C10430D
:1004500018647047024A136C23EA00001064704766
:100460000038024021B1054B5A6C10435864704764
:10047000024A536C23EA000050647047003802407F
:1004800021B1054B1A6A104318627047024A136A79
:1004900023EA0000106270470038024021B1054B8A
:1004A0005A6A104358627047024A536A23EA0000AE
:1004B0005062704700380240024A536F43F0807325
:1004C000536770470038024070B4002239E00123BE
:1004D00093400C681C409C4232D1046855000323B1
:1004E000AB40DB431C40046006680C79AC403443ED
:1004F00004600C79013CE4B2012C14D884682340D8
:10050000836084684B79AB4023438360446896B230
:100510000123B34024EA0303436044688B79B3406A
:100520009BB223434360C46896B276000323B34072
:1005300024EA0303C360C468CB79AB402343C360A0
:1005400001320F2AC3D970BC704700BF4FF6FF734A
:1005500003600023037143718371C371704700BF4F
:1005600003690B4201D0012070470020704700BF93
:10057000018370474183704730B401F007039B004B
:100580009A40C908083150F821400F2505FA03F3B5
:1005900024EA030340F8213050F821301A4340F890
:1005A000212030BC704700BFABBE01E00020704787
:1005B000002A00D010600120704706980188034A85
:1005C000914202D1043006907047FEE7ABBE0000B6
:1005D00082B00023019300932A4A136843F48033C6
:1005E0001360284B1B6803F400330093019B013315
:1005F0000193009B1BB9019BB3F5A06FF1D1214B77
:100600001B6813F4003F02D00123009301E0002394
:100610000093009B012B32D11A4B1A6C42F080528E
:100620001A6419490A6842F480420A609A689A601A
:100630009A6842F400429A609A6842F4A0529A6022
:10064000124A5A601A6842F080721A600D4B1B6899
:1006500013F0007FFAD040F205620D4B1A60A3F54B
:1006600080639A6822F003029A609A6842F002025C
:100670009A60044B9B6803F00C03082BF9D102B07D
:10068000704700BF00380240007000400854400727
:10069000003C024010B5104CD4F8883043F470038D
:1006A000C4F888300D4B1A6842F001021A6000212C
:1006B00099601A6822F0847222F480321A60084A23
:1006C0005A601A6822F480221A60D960FFF780FF0E
:1006D0004FF00063A36010BD00ED00E00038024061
:1006E00010300024036823F001030360002303603B
:1006F00043608360C3600361212343613B4B9842A5
:1007000003D13D22103B9A607047394B984204D187
:100710004FF47462283B9A607047364B984204D17C
:100720004FF47412403B9A607047334B984204D1A7
:100730004FF07462583B9A607047304B984203D137
:100740002F4A703BDA6070472E4B984203D12E4AF5
:10075000883BDA6070472D4B984203D12C4AA03B6E
:10076000DA6070472B4B984204D14FF03D52B83BB2
:10077000DA607047284B984203D13D22103B9A60C3
:100780007047264B984204D14FF47462283B9A601C
:100790007047234B984204D14FF47412403B9A6047
:1007A0007047204B984204D14FF07462583B9A60D6
:1007B00070471D4B984203D1114A703BDA60704775
:1007C0001A4B984203D1104A883BDA607047184BA5
:1007D000984203D10E4AA03BDA607047154B98420D
:1007E00003D14FF03D52B83BDA60704710600240D1
:1007F0002860024040600240586002407060024041
:100800003D00002088600240400F0020A0600240B0
:1008100000003D20B860024010640240286402409D
:1008200040640240586402407064024088640240A0
:10083000A0640240B864024010B40268134B134035
:100840000C68CA6814434A6914438A691443CA6924
:1008500014430A6A14434A6A14438A6A14434A6B6B
:1008600014438A6B224313430360436923F0070256
:10087000CC6A0B6B2343134343610B6943604B68A2
:1008800083608B68C3605DF8044B70473F801CF049
:100890000023036043608360C3600361436183613D
:1008A000C361036243628362C3620363436383631E
:1008B000704700BF21B1036843F001030360704734
:1008C000036823F001030360704700BF406880B2F3
:1008D000704700BF11F0800F09D022B1436943F087
:1008E0008003436103E0436923F08003436180296F
:1008F0000CD02AB1036801F01E0119430160704752
:10090000036801F01E0123EA01010160704700BF86
:1009100010B4144B984201D8134C00E0134C21F052
:10092000F02323F0C3132BB1CA0A02F01E0302689E
:100930001A4002E0426902F0800211F0005F01D02B
:10094000636800E0236823F0F02323F082130B4256
:1009500002D01AB9002002E0002000E001205DF87A
:10096000044B70470F640240006002400064024084
:100970000A4B984202D8A3F20F4300E0084B11F053
:10098000005F05D021F0F02121F08211D96070477D
:1009900021F0F02121F08211996070470F6402402C
:1009A0000064024008B5154B98420AD14FF48050BC
:1009B0000121FFF773FD4FF480500021FFF76EFD1A
:1009C00008BD0F4B98420AD14FF480400121FFF738
:1009D00057FD4FF480400021FFF752FD08BD094B41
:1009E000984209D14FF400400121FFF749FD4FF42F
:1009F00000400021FFF744FD08BD00BF003001406A
:100A000000380040003C0040F0B4838B9BB223F4DC
:100A10007B6323F00F039BB2838302230384858BC4
:100A2000ADB28B68022B44D08B880BB9012700E054
:100A300002272C4B9B6813F4000F04D0294A9368BB
:100A400023F400039360274ED6F88420C2F3881461
:100A5000D6F88420C2F30273726802F03F02224E7D
:100A6000B6FBF2F204FB02F2B2FBF3F2CB88B3F571
:100A7000007F09D1120A02EB820252008B68B2FB9E
:100A8000F3F305339BB20AE07B01B2FBF3F303EB14
:100A900083035B008A68B3FBF2F305339BB2134A0E
:100AA000A2FB0323DB0803F001025B08120292B2EF
:100AB00001E0002202239C1EA4B2FD2C01D90022D9
:100AC0000223CC882243134303840C884B888E88EE
:100AD0008A893243134323431D4345F400658583CC
:100AE000F0BC70470038024000127A00CDCCCCCC6C
:100AF0000023038043808380C3800222826083813D
:100B0000704700BF29B1838B9BB243F4806383831A
:100B10007047838B23F480631B041B0C8383704713
:100B200022B183889BB21943818070478388C9436F
:100B300089B2194081807047F0B585B004460D46F2
:100B4000868826F03F063604360C6846FFF70CFC14
:100B500002982D49A1FB0031890C8FB23E43A6803B
:100B6000228822F001021204120C22802B68274AEC
:100B7000934209D85B00B0FBF3F39BB2032B00D880
:100B800004230137278427E0EE884BF6FF72964254
:100B900005D103EB4302B0FBF2F39BB208E003EB99
:100BA000830303EB8303B0FBF3F39BB243F4804373
:100BB000C3F30B020AB943F0010343F400434FF4BB
:100BC000967201FB02F1124A82FB0102C917C1EBC6
:100BD000A211013189B22184A38323889BB243F0FF
:100BE0000103238023889BB223F4816323F0020353
:100BF000A9886A890A4313432380AA892B8913434E
:100C0000238105B0F0BD00BF83DE1B43A086010039
:100C1000D34D62108379002B34D010B4204B1A6866
:100C2000016822EA01021A605A68016822EA010298
:100C30005A60027902F1804202F59E32146801681E
:100C4000214311609A68016822EA01029A60DA6819
:100C5000016822EA0102DA604379102B09D1104BB6
:100C6000996802680A439A60D96802680A43DA60A0
:100C700013E003F1804303F59E33196802680A43C9
:100C80001A600AE0037903F1804303F59E331A6882
:100C9000016822EA01021A6070475DF8044B704750
:100CA000003C0140064A136803405269024202D0E8
:100CB0001BB900207047002070470120704700BF1B
:100CC000003C0140014B5861704700BF003C0140AF
:100CD00040F0BF6040F40030014BD860704700BF67
:100CE00000ED00E0C3781BB310B4194BDA68D243AF
:100CF000C2F30222C2F10401C9B20F2343FA02F483
:100D000043788B40DAB2817804EA010313431B0174
:100D1000DBB202780F490A4482F80033037858099D
:100D200003F01F03012202FA03F341F820300BE025
:100D300003785A0903F01F030121994002F12003AF
:100D4000044A42F8231070475DF8044B704700BF17
:100D500000ED00E000E100E000B51B4B85B0186835
:100D600001A900234FF0FF3201F036F9174B1B6841
:100D7000DB0702D50198FFF707FA01210820FFF7EA
:100D800055FB02A8FFF7E2FB01224FF4704302A9D2
:100D90000F488DF80C200293FFF796FB0C484FF498
:100DA0007041FFF7E5FB0B4B002B03F1FF33FBDC3E
:100DB00007484FF47041FFF7DDFB064B002B03F1B2
:100DC000FF33FBDCEAE700BFC4000020F0ED00E0E9
:100DD000000C0240404B4C0038B50B4C204601F053
:100DE00013FC204601F048FC084BE2690849181D35
:100DF000012514336060E570A36020461160BDE8F2
:100E0000384001F075BB00BF64000020C400002022
:100E1000801A060000B583B0054B02A94FF0FF32DF
:100E200041F8040D1868002300F0F8FEFEE700BF4B
:100E3000C40000202DE9F041044690B021480D4641
:100E40000021FFF737FD1F48FFF74CFC01A8FFF713
:100E50001FFD1D4A237802920022019263B31B4BAF
:100E6000D5F80080D3F824C000234FF4806E4FF4EF
:100E7000003201A94FF400674FF400564FF480751B
:100E80001048049306930C93CDF81480CDF80CC051
:100E9000CDF81CE0089709960A950B92FFF7CCFC59
:100EA000237833B110A80A4B40F8403D6846FFF75D
:100EB00019FF10B0BDE8F081DFF818C04FF002084C
:100EC000D2E700BF106002400C3C0040C40000208C
:100ED0000B0E0001EC0000202DE9F0410E4C804685
:100EE0000F462546302663680B481F6002229E602D
:100EF000C3F80C805A6001F0E9FB18B107E02B7BC6
:100F0000102B05D0237B012BF9D1BDE8F081FEE742
:100F1000FFF762FFE7E700BF640000202DE9F04F14
:100F200004469BB0FFF7C8FA2378BF4D627885F876
:100F30002C30012B85F82D2002D9BC48FFF76AFF21
:100F4000012A02D9BA48FFF765FFA178012902D921
:100F5000B848FFF75FFFE178012902D9B648FFF7EB
:100F600059FF2179182909D8D4ED027AF5EEC07A13
:100F7000F1EE10FA05D9B148FFF74CFFB048FFF782
:100F800049FF9FEDB07AF4EEC77AF1EE10FAF2DB8A
:100F9000A169002900F0B2826669002E40F3E18168
:100FA000710740F0CB811BB1E368002B00F0BA82DF
:100FB000236912B1002B00F0B282E2682B6326F0A5
:100FC000010157180B440F2001216A62EB636E6325
:100FD000AF63FFF72BFA03A8FFF7B8FA4FF0010948
:100FE0004FF47043032603A9974803930E278DF807
:100FF00010908DF81160FFF767FA03A993480397E3
:10100000FFF762FA39469148914FFFF7B3FA4FF074
:10101000020803A98F48CDF80C80FFF755FA414626
:101020008C48FFF7A7FA4FF0300A03A98A48CDF899
:101030000CA0FFF749FA51468748FFF79BFA0020BA
:10104000FFF7EEF9237907EBC30257F83300516835
:10105000FFF77AF94846FFF781F903A8FFF776FA18
:10106000102303A9794803938DF810808DF811603F
:10107000FFF72AFA062275480421FFF77DFA282394
:1010800003A974480393FFF71FFA314671480622FB
:10109000FFF772FA06226F480521FFF76DFA8023E9
:1010A00003A96D480393FFF70FFA6B480721062247
:1010B000FFF762FA95F82D304B4500F0D081FFF72D
:1010C0008BFE95F82C20584B012A00F04D814FF4EF
:1010D0000010012104F11409FFF7A8F94946204640
:1010E000FFF7A8FE5D48504E0121FFF7E3FB95F89E
:1010F0002DA0BAF1010F00F0698107A8FFF7F8FCF5
:10110000002601214FF40040ADF81E60ADF82060CC
:10111000ADF82860FFF798F95148DFF834B1FFF7D0
:1011200041FC23794E4807EBC30307A9D3F8C83025
:1011300009934FF4007A4FF44073ADF81C30ADF8CA
:1011400022A0FFF761FC01210A464548FFF7E8FCB1
:1011500095F82D80B8F1010F00F0B48101214048CD
:10116000FFF7D0FC95F82D10012900F0A7813D4E26
:10117000012002F06BF9736830229A60394801F05F
:101180000BFB0128FAD0A522DF23694602208DF847
:1011900000208DF80130FFF79FFED4ED027A9FED1D
:1011A000327AF4EEC77AF1EE10FA40F3C580B1EE70
:1011B000000A27EEC00A03F053F8BCEEC00A10EE96
:1011C000103ADBB2102069464FF0000A8DF800306B
:1011D0008DF80130DFF88CB0FFF77EFEFF22112082
:1011E00069468DF801208DF800A0FFF775FE1320E9
:1011F00069468DF800A08DF801A0D846FFF76CFE77
:101200008DF800A08DF801A07368164800AA1A6036
:101210004FF0300E14210222C3F808E0D9605A6062
:1012200001F054FA30B36EE0C40000209CA800081E
:1012300014A900088CA9000808AA000814AB00082B
:1012400098AA00080000C8C2000C0240000002403A
:101250000CA7000800040240000802401060024091
:10126000003C004064000020000050C29BF80C309D
:10127000102B49D0337B012BF8D100262120694661
:101280008DF800608DF80160FFF726FEE3788DF899
:10129000006002228DF8012013B90E238DF8013071
:1012A00069462220FFF718FE2378012B08BF0D2383
:1012B0004FF005018DF8001008BF8DF800306378FD
:1012C0001022012B8DF801203BD0237907EBC307B7
:1012D00043F2D302D7F8CC30934206DD46F2A71290
:1012E000934235DC11238DF8013069460020FFF769
:1012F000F3FD95F82C50012D00F00381A369984768
:101300008A48FFF787FDFEE7894801F07DF98848A4
:1013100001F0B2F98749D8F81C30874AC8F808109C
:10132000A1F11000C8F80400012088F803001A6039
:101330007F4801F0DDF867E7FC2343E77F48FFF7CC
:1013400069FD9DF8003043F002038DF80030BCE7E2
:101350004CF24F329342D4BF122313238DF8013045
:10136000C3E77748FFF756FD93F82D60012E7FF411
:10137000AEAE31464FF48040FFF774F84FF00008EE
:1013800003A9704803968DF810808DF81380FFF73D
:101390009BF840464146FEF7FFFE102305A88DF856
:1013A00019308DF8188005968DF81A60FFF732FC19
:1013B00006220F2302A88DF80A808DF80B608DF8A5
:1013C00008208DF80930FFF78DFC80E600215E488B
:1013D000FFF770FA5C48FFF785F90BA8FFF758FA9A
:1013E000366BDFF884C10D9640234FF000084FF4B0
:1013F000806E0BA94FF40052CDF830C00E934FF41D
:10140000807C636950480F934FF400664FF4003BB3
:10141000CDF844E0CDF850C01392CDF82C80CDF833
:101420004080CDF858801296CDF854B0FFF704FAFA
:10143000524645481821FFF74DFA41464248FFF70A
:1014400039FA0F220E2302A88DF80A808DF80BA01E
:101450008DF808208DF80930FFF744FC4DE603A80D
:10146000FFF774F8082303A9384803938DF8108018
:101470008DF81160FFF728F8314605223348FFF751
:101480007BF84FF4C06303A931480393FFF71CF8BE
:101490002F4809210522FFF76FF805222C480A2161
:1014A000FFF76AF8402303A928480393FFF70CF8D5
:1014B000264806210522FFF75FF800E62548FFF7DA
:1014C00021FB54E641464FF48040FEF7BDFF214822
:1014D000FFF768FA23791F48ADF822600BEBC30BC6
:1014E00007A9DBF8CC30ADF81CA00993FFF78CFA04
:1014F000424618480221FFF713FB2FE61648FFF774
:1015000089FC49462046FFF795FC144818212A46D5
:10151000FFF7E0F929461148FFF7CCF9EEE610484D
:10152000FFF778FC0F48FFF775FC00BFD4AD00084B
:1015300064000020D8000020801A060044AC000897
:10154000D4AB000800000240706002400008024076
:1015500000040240003800408CAB000810600240DC
:1015600038AD00089CAC00080C3800402DE9F0476D
:10157000264E274CDFF8A09082B006F1040806F151
:101580001407A246254600210B464FF0FF32306C6F
:1015900000F022FD1F480121FEF7E2FF00239842E0
:1015A00014BF102018468DF800008DF801306368D4
:1015B000174800AA1A604FF0300E14210222C3F817
:1015C00008E0D9605A6001F081F820B10AE09AF889
:1015D0000C30102B07D0237B012BF8D11E2001F0FB
:1015E00035FFD0E7FEE70A4801F00EF8084801F0A1
:1015F00043F8EB69C5F804800122AF60EA70044843
:10160000C3F8009000F074FFD1E700BFC4000020D1
:101610006400002000000240801A060000B5164B4E
:101620001B68DB0783B001D5FEF7AEFD0121082062
:10163000FEF7FCFE6846FEF789FF01224FF4704377
:1016400069460E488DF804200093FEF73DFF0B48D5
:101650004FF47041FEF78CFF094B002B03F1FF3371
:10166000FBDC06484FF47041FEF784FF044B002B6F
:1016700003F1FF33FBDCEAE7F0ED00E0000C024091
:10168000404B4C0008B50148FFF7C8FFFCAD00080F
:1016900008B50148FFF7C2FFACAE000830B5002125
:1016A00085B00322012000F07DFA104D042128644A
:1016B0000022012000F076FA0024022328608DE841
:1016C000180002942346039409490A48402201F075
:1016D0002FFC0122009201940294039423460649B0
:1016E0000648402201F024FC05B030BDC4000020B3
:1016F000E0AE0008590D0008E4AE00086D150008C2
:1017000008B501F09FFB012001F0A0FEF9E700BF42
:1017100008B50120FFF7C6FA00B908BD054B002146
:10172000186C0A460B4600F0C5FB0120BDE80840D6
:10173000FFF7C8BAC400002070B5294C29482A49CF
:1017400082B0FFF715F994F84A30656C012B1FD071
:1017500024482649FFF7DCF868B922482449FFF7F6
:10176000D7F830B11F482249FFF702F9214B012277
:101770005A6002B070BD1B481C49FFF7F9F81D4BB9
:101780001A68013204BF5A681A6002225A60E4E7FC
:101790001448666BFFF79AF8164B301A60661B68A0
:1017A000022B636B04BF03EBD37205EB6205626E21
:1017B0001A44551B95FBF3F203FB1255D3EBC303FD
:1017C00048BF0733B5EBE30FC2DB02A90A4B41F870
:1017D000043D00222068134600F06CFBB8E700BF10
:1017E000C400002010600240010000901040001072
:1017F0002080001024000020E8AE000870B5244CC2
:1018000094F84A30A56E012B82B01AD021482249A3
:10181000FFF77EF868B91F482049FFF779F830B123
:101820001C481E49FFF7A4F81D4B0122DA6002B0E4
:1018300070BD18481849FFF79BF8194B0222DA606F
:10184000E9E71448666BFFF741F8154B301AE0667C
:101850009B68022B636B04BF03EBD37205EB62053D
:10186000E26E1D44AD1A95FBF3F203FB1255002BFB
:10187000B8BF0733B5EBE30FC8DC02A9094B41F849
:10188000043D00222068134600F014FBBEE700BFB1
:10189000C400002070600240104000202080002022
:1018A00024000020A4AF00080122002310B44FF050
:1018B000FF31074C84604161027042708270C270D7
:1018C0000371C360036183615DF8044B704700BF1F
:1018D000000020C105460FCD0F4E06F1480400B5AB
:1018E0000FC495E8070085B084E80700FFF7D6FE2F
:1018F000002201218DE8060006F1480302920392BE
:10190000064907484FF4807201F012FB01F0FEFB1C
:101910000448FFF77FFA00BFC400002060B0000851
:101920001D0F000864B000082DE9F0476C4C94F8D6
:101930002D30012B81468A4640F0CC8011F0030FF8
:1019400040F0C580626B002A1346B8BFD31CB1EBD0
:10195000A30F00F3C280634FBB68A16E012B0CBFC5
:10196000236BE36B03EB4103A16E02EBD272C1EB7D
:10197000620202EBD2724FEA6208D045A8BFD0469D
:10198000B8F1000F3CDD08F1FF3292081C3000EB8B
:10199000021009F10C02A16E12ED036A52ED026A07
:1019A00012ED017AFEEE606A16EE906A06F30F06FB
:1019B0001546103208318242D5ED007AA166BEEE9E
:1019C000606A16EE105A05F30F059E801D805D803B
:1019D000DE80BEEE607A17EE105A05F30F0503F1B4
:1019E000100323F8085C23F8065CFEEE607A17EE1D
:1019F000905A05F30F0523F8045C23F8025CCAD162
:101A0000C2455BDDFB68374D013359D0BA68FB68CE
:101A10009A42FBD172B6B968314BC1F10301002281
:101A2000B960A26662B6BA680AF1FF36012A0CBF35
:101A30001B6BDB6BC8EB0606B60803EB061608F15A
:101A40000300103609EB800050ED017A50ED036A77
:101A500010ED027AFEEE606A16EE901A01F30F01A5
:101A6000A56E198059800146BEEE607A17EE102AE5
:101A700002F30F02103323F80C2C23F80A2CFEEE8D
:101A8000607A17EE902A02F30F02D1ED007A23F864
:101A9000082C23F8062CFEEE607A17EE902A02F34B
:101AA0000F0223F8042C23F8022C05F10801B3429D
:101AB00000F11000A166C7D1BDE8F087BDE8F0874E
:101AC00009480121FEF7F6FEAB68EB60A2E7074884
:101AD000FFF7A0F90648FFF79DF90648FFF79AF9C6
:101AE000C40000202400002070600240F4B0000810
:101AF000F8B1000854B2000830B40568034665B177
:101B0000026CC468406814448442DC6028BFDD6015
:101B1000084630BCD96802F005BC30BC704700BF35
:101B200038B5044602F0D6F8A36C002B14DD636AC6
:101B300093B104F1240507E0A36C013BA364A36CFB
:101B4000002B09DD636A3BB1284601F01DFE002829
:101B5000F2D001F097FEEFE74FF0FF33A36402F0FD
:101B6000CBF802F0B7F8636C002B14DD236993B156
:101B700004F1100507E0636C013B6364636C002BA8
:101B800009DD23693BB1284601F0FEFD0028F2D0B3
:101B900001F078FEEFE74FF0FF336364BDE83840B3
:101BA00002F0AAB8F8B505460E461746002831D00F
:101BB000542000F0C3FB044660B306FB05F001307F
:101BC00000F0BCFB206010B3E563266402F082F8ED
:101BD000206CE16B2368A36001FB00F1081A00226E
:101BE00018440B444FF0FF31A26363606164E0600E
:101BF000A16404F1100001F0C1FF04F1240001F020
:101C0000BDFF02F079F884F850702046F8BD2046F8
:101C100000F028FC02F048F8FEE700BF2DE9F04391
:101C200085B004460E4601921D46002800F0F28061
:101C3000002900F02F81022D55D001F031FE18B996
:101C4000019B002B40F0238102F044F8A26BE36B70
:101C50004FF000089A42474679D3022D00F0EC80FD
:101C6000DDF80490B9F1000F00F0E080B8F1000F4A
:101C700000F0CC8002F040F801F0DCFA02F02AF823
:101C8000636C013308BF6764A36C013308BFA764AA
:101C900002F032F802A801A901F0BCFD002840F0D2
:101CA000BC8002F017F8A26BE36B9A4263D002F09B
:101CB00023F802F00FF8A36C002B1ADD636AC3B19E
:101CC00004F1240807E0A36C013BA364A36C002B80
:101CD0000FDD626A6AB1404601F056FD0028F2D07D
:101CE00001F0D0FDEFE7E36B012BA6D001F0DCFFA4
:101CF000FEE74FF0FF33A36401F0FEFF01F0EAFFBF
:101D0000636C002B14DD236993B104F1100807E024
:101D1000636C013B6364636C002B09DD22693AB19B
:101D2000404601F031FD0028F2D001F0ABFDEFE7B5
:101D30004FF0FF33636401F0DFFF01F01DFB01F0A2
:101D4000C9FFA26BE36B9A424FF0010885D2226C67
:101D5000002A73D0002D40F082803146A06802F046
:101D6000E1FAA168236C62680B449342A3606BD3D1
:101D70002368A36068E004F1100801F0BDFF40464D
:101D8000019901F08BFC01F0A5FFA36C002B14DD81
:101D9000636A93B104F1240907E0A36C013BA364D7
:101DA000A36C002B09DD626A3AB1484601F0ECFCF5
:101DB0000028F2D001F066FDEFE74FF0FF33A36497
:101DC00001F09AFF01F086FF636C002B12DD23699E
:101DD00043B90FE0636C013B6364636C002B09DD66
:101DE00022693AB1404601F0CFFC0028F2D001F060
:101DF00049FDEFE74FF0FF33636401F07DFF01F031
:101E0000BBFA00289BD101F043FF98E702A801F03C
:101E1000F1FC2FE701F048FFFEE72046FFF780FEC8
:101E200001F0AAFA002005B0BDE8F08301F064FFDC
:101E3000484605B0BDE8F083226C82B925681DB91B
:101E4000606801F077FD6560A26B636A0132A2638E
:101E50003BBB01F051FF012005B0BDE8F0833146E6
:101E6000E06802F05FFA236CE26821685B421A4482
:101E70008A42E26002D262681344E360022DE3D139
:101E8000A36B002BE0D0A36B013BA363DCE701F065
:101E90000BFFFEE7036C002B3FF4CDAE01F004FF17
:101EA000FEE704F1240001F06FFC0128D1D101F01C
:101EB000EFFECEE72DE9F04104460E4690461D4662
:101EC00000282ED000297FD0022D0FD001F0CEFFA8
:101ED00001F0EAFEA26BE36B934207460CD80024A4
:101EE000384601F005FF2046BDE8F081E36B012B89
:101EF00032D001F0D9FEFEE7226CAAB92568002D88
:101F00005DD0A36B0133A363A36C01331BD0A36C1F
:101F10000133A3643846012401F0EAFE2046BDE8FF
:101F2000F08101F0C1FEFEE7FDB93146A06802F084
:101F3000F9F9A168236C62680B449342A360E0D373
:101F40002368A360DDE7636A3BBB3846012401F0E8
:101F5000CFFE2046BDE8F08101F088FF01F0A4FE2D
:101F6000A26B226C0746002AC8D03146E06802F016
:101F7000D9F9236CE26821685B421A448A42E26024
:101F800002D262681344E360022DBAD1A36B002B26
:101F9000B7D0A36B013BA363B3E704F1240001F0C6
:101FA000F3FB0028D1D00124B8F1000F98D03846B7
:101FB000C8F8004001F09CFE2046BDE8F081606852
:101FC00001F0B8FC65609CE7036C002B3FF47CAF2C
:101FD00001F06AFEFEE700BF2DE9F04385B004463C
:101FE0000D4601921F46002800F0EB80002900F00A
:101FF000198101F055FC18B9019B002B40F00F81AD
:1020000001F068FEA36B4FF000084646002B79D123
:10201000DDF80490B9F1000F00F0E780B8F1000F8F
:1020200000F0CB8001F068FE01F004F901F052FEEF
:10203000636C013308BF6664A36C013308BFA664F8
:1020400001F05AFE02A801A901F0E4FB002840F0CB
:10205000C38001F03FFEA36B002B6BD101F04CFE5F
:102060002368002B00F0B08004F124084046019959
:1020700001F014FB01F02EFEA36C002B12DD636A4D
:1020800043B90FE0A36C013BA364A36C002B09DDF3
:10209000626A3AB1404601F077FB0028F2D001F0C5
:1020A000F1FBEFE74FF0FF33A36401F025FE01F0F1
:1020B00011FE636C002B14DD236993B104F1100849
:1020C00007E0626C013A6264626C002A09DD2269F1
:1020D0003AB1404601F058FB0028F2D001F0D2FBA3
:1020E000EFE74FF0FF33636401F006FE01F044F9BF
:1020F00008B901F0CDFD01F0EDFDA36B4FF0010833
:10210000002B85D029462046E568FFF7F5FC002F17
:1021100071D1A26B2368013AA26313B901F0BAFB33
:1021200060602369002B73D101F0E6FD012005B04A
:10213000BDE8F08301F0E0FD01F0CCFDA36C002BC5
:1021400014DD636A93B104F1240807E0A36C013B3A
:10215000A364A36C002B09DD636A3BB1404601F028
:1021600013FB0028F2D001F08DFBEFE74FF0FF33B7
:10217000A36401F0C1FD01F0ADFD636C002B14DD23
:10218000236993B104F1100807E0636C013B6364B9
:10219000636C002B09DD23693BB1404601F0F4FA82
:1021A0000028F2D001F06EFBEFE74FF0FF336364DD
:1021B00001F0A2FD01F0E0F89DE702A801F01AFB92
:1021C00030E701F071FDFEE701F084FD606801F089
:1021D00077FB01F091FD47E72046FFF7A1FC01F0F6
:1021E000CBF8002005B0BDE8F08301F085FD48463E
:1021F00005B0BDE8F083636AE560002B94D004F17C
:10220000240001F0C1FA00288ED001F041FD8BE7D7
:1022100004F1100001F0B8FA012885D1F5E701F0CA
:1022200043FDFEE7036C002B3FF4E3AE01F03CFD01
:10223000FEE700BF144B1A6810B48AB19A68BAB1AD
:102240001A69BAB19A69BAB11A6ABAB19A6ABAB1D4
:102250001A6B22B19A6BAAB15DF8044B7047062243
:1022600003EBC20443F8321060605DF8044B704722
:102270000122F5E70222F3E70322F1E70422EFE768
:102280000522EDE70722EBE79434002038B5044639
:102290000D4601F01FFD636C013304BF002363642E
:1022A000A36C013304BF0023A36401F025FDA36BDD
:1022B00023B9294604F1240001F030FA01F00AFDA7
:1022C000A36C002B14DD636A93B104F1240507E0CD
:1022D000A36C013BA364A36C002B09DD636A3BB1D3
:1022E000284601F051FA0028F2D001F0CBFAEFE7CE
:1022F0004FF0FF33A36401F0FFFC01F0EBFC636CD3
:10230000002B14DD236993B104F1100507E0636C21
:10231000013B6364636C002B09DD23693BB12846F4
:1023200001F032FA0028F2D001F0ACFAEFE74FF0FA
:10233000FF336364BDE8384001F0DEBC2DE9F843AB
:10234000044600F077FF454B9A68002A5BD0D3F82B
:102350000CE090461EEA040F35D1002C33D008342F
:1023600062071CBF24F00704083464B33C4FD7F85D
:1023700000C0644527D81B68384803E01A6822B1BA
:102380001846134659688C42F8D898451BD01A68ED
:1023900002600A1B102A03F108091DD87868304C26
:1023A000C1EB0C02824238BF62603A6041EA0E0122
:1023B000002259601A6000F0DFFFB9F1000F04D06D
:1023C0004846BDE8F88300F0D7FF4FF00009FFF75B
:1023D0005FF94846BDE8F8831E19204D72605C60C5
:1023E00000E015462A689642FBD86968681886425C
:1023F0002CD071687018824220D03260B542596882
:1024000018BF2E60CAE7164E03F1180020F007002F
:10241000356800F589514FF4895EA5F108074FF042
:102420000045016099605A601860C0F804E0884671
:102430004A600A603760DD60AE468BE790450AD09F
:1024400050681268326001447160D7E770680144D7
:1024500069602E46CEE7C6F80080CFE7380100203D
:102460003400002070B5054670B11F4E50F8043C92
:10247000F2681A4205D050F8081C31B101F014FC82
:10248000FEE701F011FCFEE770BD23EA020340F80D
:10249000043C00F0CFFE154B55F8044C1A6822445A
:1024A0001A60A5F10803324611688B4201D90A4629
:1024B000FAE750681518AB4202D104445460134641
:1024C0001819814207D019609A4218BF1360BDE8FD
:1024D000704000F051BFB0688142F4D0486809688C
:1024E000196004445C60EFE73801002034000020EC
:1024F000F0B5037B012B85B0044605D0037B102B80
:1025000002D0037B002B61D1E378022B59D02078D5
:10251000384D55F82020138823F001031B041B0CB1
:10252000138001F09BFA207801F03EFA207801F048
:1025300027FA207801F04CFA2378E16955F8230056
:1025400003889BB243F001030380FEF7F5FA61694B
:102550002078CE0206D555F820301A8892B242F083
:1025600040021A80CA0712D555F820309A8992B2D3
:1025700042F001029A819A8922F0FE021204120CA2
:102580009A819E8901F0FE02B6B232439A814B00D5
:1025900007D555F82020138823F480631B041B0CF7
:1025A0001380154E6278E37801F07EFA35680127D2
:1025B000277375B1114B186800F06CFD002005B051
:1025C000F0BD10230120237305B0F0BD012005B03C
:1025D000F0BD0A4B029502228DE80C0003950849D4
:1025E000084830222B4600F0A3FC2846376005B08F
:1025F000F0BD00BF580000203401002090340020BE
:1026000008B300080117000838B5037B012B044606
:1026100004D0037B102B01D0037B23BB207801F077
:102620001DFA2078114B53F82020138823F0010362
:102630001B041B0C138001F0B7F92078E378616963
:10264000627801F06BFA0A4B186800254FF0FF33EF
:1026500025732561A36100B938BD064B186800F0E9
:10266000CBFF284638BD012038BD00BF58000020F0
:1026700034010020903400202DE9F0010346114A76
:10268000C2614FF4804800204BF6FF774FF480661C
:1026900003250224DFF830C0A2F80C804FF0FF3190
:1026A0005681D78010819080C2F800C018735D7089
:1026B0001861DC7098705860986058619961BDE845
:1026C000F0017047D4340020A0860100027B9107FE
:1026D00010B403462ED4027B032A2BD0027B052A9A
:1026E00028D0027B32B3027B102A23D04069022219
:1026F0001A73C20122D5274A197852F821109A7804
:102700007AB90A8892B242F480720A80C20304D570
:10271000DA78012A38D010221A7303201F22187386
:102720009A618B885DF8044B9BB243F400730020E0
:102730008B80704701205DF8044B704715491C7869
:10274000062251F824109A6105E09A69012A05D001
:102750009A69013202D00A8B9407F6D49A69012A49
:1027600006D09A69013203D04FF0FF329A61C6E772
:102770004FF0FF301021FF2298615DF8044B197370
:1027800018461A6101F096BB8A8892B242F48062C0
:102790008A80C2E75800002010B53D4B04780246FD
:1027A00082B053F824304FF6FF700221019011736C
:1027B000998821F480710904090C9980198821F005
:1027C00001010904090C1980198889B241F001013D
:1027D0001980188880B240F480701F2118809161A0
:1027E00005E09169012905D09169013102D0998AEA
:1027F000C807F6D5916901293ED0916901313BD0D6
:10280000516889684FF0FF3001F0FE019061198234
:1028100003E001990139019111B1998A8907F8D52D
:10282000019931B34FF6FF319982198889B241F489
:1028300000711980188B00F0020080B20028F9D1D5
:10284000198821F001010904090C1980198889B23D
:1028500041F001011980198889B241F48061198021
:102860009C88A4B244F4807401219C80117302B04E
:1028700010BD012002B010BD1021FF234FF0FF302A
:10288000906111731046136101F014FB02B010BD8A
:102890005800002070B502789F4982B0002451F89A
:1028A0002220ADF80640948A0346807804F0DF04C5
:1028B000ADF80640A8B9BDF80600C5072DD4BDF88F
:1028C000064004F00204A4B2002C3CD1BDF806007E
:1028D000050609D4BDF80600460602D5187B0A286D
:1028E00055D0002002B070BD1D7BEDB2062DF1D198
:1028F000D9780129F5D159684868002800F032815B
:102900000B68187810824A68013A4A604A68002ABF
:10291000E7D001330B602046E4E7D96989894FF09D
:10292000FF30B1F5804F9861DBD1197B052900F0AC
:10293000EA8059688868062100F0FE001082197349
:1029400004229A61CDE7D978022900F096804FF0F1
:10295000FF309861187B0A2800F09E80187B0A28B7
:1029600000F0B180187B0A2800F09A80012900F05D
:10297000B380908A108B5C6914F48030B1D11D7BD8
:10298000062D59D0012972D010221A73AAE7D878DF
:102990000128A6D198684468032C00F2BF804468DF
:1029A000012C00F04D814268022A00F01281426839
:1029B000032A00F04D814068002892D11A785C69A2
:1029C00051F822108A8822F400721204120C8A80B4
:1029D0008A8822F480621204120C8A80A5028A8AF4
:1029E0000A8A04D524F4001402225C61DA700622FB
:1029F0009A6105E09A69012A05D09A69013202D0EC
:102A00000A8B9207F6D49A69012A00F0A0809A698D
:102A1000013200F09C804FF0FF329A610A8892B236
:102A200042F480620A800A8822F400621204120CC6
:102A300001240A801C7355E7A403A3D45C68032512
:102A4000247B14829D6105E09C69012C05D09C6962
:102A5000013402D0948A2606F6D59C69012C76D0E2
:102A60009C69013473D04FF0FF349C618AE79388EE
:102A70009BB243F48063938034E7187B062858D0D8
:102A8000187B0A2805BF986840684FF0FF30013076
:102A90009861187B187B65E701294FD0187B61E7A7
:102AA0009868406801287FF461AF108820F4806046
:102AB0000004000C1080908A108B108880B240F4C3
:102AC0000070108057E701297FF44CAF908880B2E6
:102AD00040F48060908045E7187B0A287FF449AF76
:102AE0009868406802287FF444AF108820F4806022
:102AF0000004000C1080108880B240F40060108048
:102B0000908A108B37E79968886840F00100C0B25E
:102B10000A211082197313E7580000200068128AF6
:102B200002709868026844680132013C02604460A7
:102B300041E75868406801309861AAE798684068A2
:102B400000283DD0187B0A287FF40CAFBEE74FF079
:102B5000FF301021FF229861197318461A6101F0A5
:102B6000A9F9BFE659690C0200F1D480118889B235
:102B700041F400711180918821F400710904090C5D
:102B80009180918821F480610904090C91809D61F4
:102B900005E09969012907D09969013104D0918A2A
:102BA00001F084010029F4D19A69012ACFD09A69F1
:102BB0000132CCD04FF0FF329A6101221A7391E6B4
:102BC0001488A4B244F400741480948A128B19738C
:102BD00088E61A7851F82240A28822F48062120412
:102BE000120C0525A2809D6105E09A69012A05D095
:102BF0009A69013202D0A28A5507F6D59A69012A4C
:102C0000A5D09A690132A2D04FF0FF329A6125888F
:102C10000268A8B240F400702080208A10709A6880
:102C20001C7810685568461C166051F82440013D18
:102C30005560228A427098684268013A4260B6E65E
:102C40000068128A027098684268013A4260AAE6F7
:102C50001A7851F82240A28822F480621204120CE1
:102C60000525A2809D6105E09A69012A05D09A692F
:102C7000013202D0A28A5207F6D59A69012A3FF49E
:102C800066AF9A6901323FF462AF4FF0FF329A614A
:102C90002288006822F480621204120C2280228AA8
:102CA00002709A68187814685568661C1660013DB1
:102CB00051F82000556005229A6105E09A69012AC1
:102CC00005D09A69013202D0828A5607F6D59A69F0
:102CD000012A3FF43CAF9A6901323FF438AF4FF01C
:102CE000FF329A61028892B242F400720280028A34
:102CF00062709A681C7810685568461C166051F816
:102D00002440013D5560228A427098684268013A29
:102D1000426050E6918821F400710904090C918009
:102D2000918821F480610904090C91809D6107E07C
:102D3000996901293FF438AF996901313FF434AF03
:102D4000918A09067FF530AFF2E700BF8278012A49
:102D500010B403462FD01978394A52F82120948AAA
:102D600010204FF2FF0104F470641C61187391820B
:102D70001969C8050AD511886FEA41416FEA5141C6
:102D800089B211801188C1F30E011180196989057A
:102D900005D41A691B6900205DF8044B704711883F
:102DA0006FEA41416FEA514189B211801188C1F344
:102DB0000E011180EDE742685268002ACBD1027BF8
:102DC000012A02D0027B062AC5D118781C49DA787C
:102DD00051F82010012A4FF2FF008882DBD18A8847
:102DE00022F400721204120C8A808A8822F4806213
:102DF0001204120C06208A80986105E09A69012A63
:102E000005D09A69013202D00A8B9407F6D49A69E8
:102E1000012A08D09A69013205D04FF0FF31012212
:102E200099611A73B7E74FF0FF301021FF229861C4
:102E30005DF8044B197318461A6101F03BB800BFE6
:102E40005800002010B5244C206840B18369002B45
:102E500035D08369013302D08369013B83616068A7
:102E600038B18369F3B18369013302D08369013BCF
:102E70008361A06838B1836933B18369013302D0BB
:102E80008369013B836110BD10234FF0FF328261E3
:102E900003730369002BF6D1FF230361BDE81040E3
:102EA00001F008B810234FF0FF3282610373036909
:102EB000002BDED1FF23036100F0FCFFD9E71023D4
:102EC0004FF0FF32826103730369002BC7D1FF23E8
:102ED000036100F0EFFFC2E7A800002070B5134CBB
:102EE000204600F04BFE04F1140000F047FE04F110
:102EF0003C0604F1280000F041FE04F15005304684
:102F000000F03CFE284600F039FE04F1640000F0B9
:102F100035FE04F1780000F031FE04F18C0000F081
:102F20002DFEC4F8A060C4F8A45070BD7812002033
:102F30002DE9F84F0AAE80460D4617469A4696E8A8
:102F4000400A002800F08380022E02D900F0ACFE77
:102F5000FEE74420FFF7F2F90446002800F09480D1
:102F6000BBF1000F00F08480C0F830B058464FEA43
:102F7000870B5A46A52101F06FFA2A78236B84F853
:102F8000342007F18047013F2A7803EB870323F0C1
:102F9000070B3AB16B7884F835306B7813B1AB78A6
:102FA00084F836300023271D84F837303846E6622F
:102FB000266400F0EFFD04F1180000F0EBFDC6F10F
:102FC000030324616462584641465246A36100F0FF
:102FD00039FE2060B9F1000F01D0C9F800402C4D36
:102FE00000F078FED5F8A8300133C5F8A830D5F840
:102FF000AC30A3B3D5F8B03033B9D5F8AC30DB6A18
:103000009E4228BFC5F8AC40E36AD5F8B800D5F8B1
:10301000B4201F490132834203EB830088BFC1F80B
:10302000B830A26305EB80003946C5F8B42000F043
:10303000B5FD00F061FED5F8B020154B22B1D3F8F4
:10304000AC30DB6A9E4205D80120BDE8F88F00F065
:103050002BFEFEE700F01CFE0120BDE8F88FC5F84E
:10306000AC40D5F8A830012BCED1FFF737FFCBE726
:103070004FEA870B5846FFF761F9206300287FF479
:1030800078AF2046FFF7EEF94FF0FF30BDE8F88F3C
:103090007812002070B5054680B11B4CD4F8AC30D6
:1030A00098420AD000F016FE6B6904F18C0293423C
:1030B00007D0BDE8704000F01FBE70BD00F0F4FD09
:1030C000FEE7AB6A04F164029342F2D0002BF0D128
:1030D0002E1D304600F08AFDEB6AD4F8B82003EBD1
:1030E0008300934204EB8000314688BFC4F8B830B7
:1030F00000F054FDD4F8AC30EA6ADB6A9A42D8D3C7
:1031000000F0C6FDD5E700BF781200202DE9F041A0
:103110004420FFF713F90446002873D04FF40270DF
:10312000FFF70CF92063002871D0A5214FF402723B
:1031300001F092F9236B3D4D44214C220026492099
:10314000271D03F5017384F8351084F8362084F8C0
:10315000340084F837603846E662266423F00708B6
:1031600000F018FD04F1180000F014FD0323A36122
:1031700032462F4924614046646200F063FD2060BE
:1031800000F0A8FDD5F8A8300133C5F8A830D5F86F
:10319000AC30002B40D0D5F8B0302BB9D5F8AC30DE
:1031A000DB6A0BB9C5F8AC40E36AD5F8B800D5F8CE
:1031B000B4201E490132834203EB830088BFC1F86B
:1031C000B830A26305EB80003946C5F8B42000F0A2
:1031D000E5FC00F091FDD5F8B020144B0AB1D3F80E
:1031E000AC3000F069FE012804460AD100F05CFD15
:1031F0000023C5F8B040C5F8C430BDE8F04100F088
:10320000E3BD0CB1BDE8F08100F04EFDFEE72046C5
:10321000BDE8F041FFF726B9C5F8AC40D5F8A830B5
:10322000012BC1D1FFF75AFEBEE700BF7812002084
:10323000CD340008034BD3F8C0200132C3F8C020BE
:10324000704700BF7812002010B500F043FD034B1B
:10325000D3F8C44000F050FD204610BD7812002085
:103260002DE9F047424CD4F8C030002B4BD1D4F8B4
:10327000C4300133C4F8C430D4F8C480B8F1000FAE
:103280004FD03C4E3368984552D3DFF8E490002588
:1032900026E0D9F8A030DB68DF687B6807F1040A14
:1032A0009845504623D300F0A1FCBB6A07F11800F3
:1032B0000BB100F09BFCFB6AD4F8B82003EB830051
:1032C000934204EB8000514688BFC9F8B83000F043
:1032D00065FCD4F8AC30FA6ADB6A9A4228BF012553
:1032E000D4F8A0301B68002BD3D14FF0FF333360EC
:1032F000D4F8AC30DB6A03EB830354F82330022BA1
:1033000028BF012505E0D4F8CC300133C4F8CC3017
:103310000025D4F8D030002B18BF01252846BDE881
:10332000F087D4F8A0301B6823B100F0BDFCFEE7A5
:103330000025DDE7D4F8A030D4F8A420C4F8A020FC
:10334000C4F8A430D4F8C8300133C4F8C830D4F875
:10335000A0301B683BB1D4F8A030064EDB68DB68B8
:103360005B6833608EE7034E4FF0FF33336089E7CD
:10337000781200203C0000202DE9F843324CD4F8AC
:10338000C03013B900F090FCFEE700F0A3FCD4F8C5
:10339000C030013BC4F8C030D4F8C03093BBD4F87F
:1033A000A8307BB32646A1464FF001081FE0336FDB
:1033B000DD682F1D05F1180000F018FC384600F0FC
:1033C00015FCEB6AD6F8B82003EB8300934239462C
:1033D00004EB800088BFC6F8B83000F0DFFBD4F8FB
:1033E000AC30EA6ADB6A9A4228BFC9F8D080626EC4
:1033F000154B002ADBD1D3F8CC204AB9D4F8D04001
:10340000012C19D0002400F077FC2046BDE8F88399
:10341000D3F8CC30002BF1D00125FFF721FF08B104
:10342000C4F8D050D4F8CC30013BC4F8CC30D4F838
:10343000CC30002BF1D1E1E700F02AFC00F05CFC7D
:103440002046BDE8F88300BF7812002038B5034657
:1034500018B9BDE8384000F01BBC1A4CD4F8C020A5
:1034600022BBD4F8C0200132C4F8C020D4F8C45024
:10347000D4F8AC0004301D4400F0B8FBD4F8AC2004
:10348000D4F8C43055609D4213D3D4F8A000D4F8CA
:10349000AC10043100F090FB0B4B1A68954238BF1A
:1034A0001D60FFF769FF0028D3D038BD00F0FCFB9A
:1034B000FEE7D4F8A400D4F8AC10043100F07CFB93
:1034C000EFE700BF781200203C000020184E08B53E
:1034D000344608E0D4F8C030A56F0133C4F8C030DA
:1034E000FFF74AFF4DB9D6F8BC30002BF2D1236864
:1034F000012BF8D900F0CCFBF5E700F0EBFBD4F89A
:103500008430DD68281D00F071FBD4F8A830013B41
:10351000C4F8A830D4F8BC30013BC4F8BC3000F08B
:10352000EBFB286BFEF79EFF2846FEF79BFFDAE7D2
:103530007812002038B52E4CD4F8C030002B4DD175
:10354000C4F8D030D4F8AC20D4F8AC3012681B6B7F
:103550009A4206D8D4F8AC00D4F8AC103431FEF757
:1035600091F8D4F8AC302349186B214D142200F0A7
:10357000A7FE30B1D5F8AC00D5F8AC103431FEF769
:1035800081F8D4F8B8301A4A03EB830354F8233097
:1035900063B112E0D4F8B830013BC4F8B830D4F8C5
:1035A000B83003EB830354F8233033B9D2F8B83082
:1035B000002BEFD100F078FBFEE7D4F8B82002EB47
:1035C000820204EB820202F1080153685B685360D7
:1035D0008B4207D0DB68C4F8AC3038BD0123C4F897
:1035E000D03038BD5B685360DB68C4F8AC3038BDA0
:1035F000781200200CB30008F8B50446254F00F0FF
:1036000069FB002C31D0261D304600F0EFFAA36A8A
:103610001BB104F1180000F0E9FA1E4D314605F126
:103620008C0000F0BBFA00F067FBD7F8AC309C428E
:10363000D5F8B03012D003B9F8BDD5F8A0301B686A
:1036400023B9154B4FF0FF321A60F8BDD5F8A02012
:10365000114BD268D26852681A60F8BD43B1D5F8F0
:10366000C03073B100F020FBFEE7D7F8AC40CAE7EA
:10367000D5F8A810D5F88C208A4206D1C5F8AC3010
:10368000F8BDBDE8F84000F003BBBDE8F840FFF727
:1036900051BF00BF781200203C00002038B50D4615
:1036A000A8B31C4CD4F8AC10183100F085FAD4F84B
:1036B000AC00043000F09AFA6B1C1FD0D4F8C41090
:1036C000D4F8AC20D4F8C4300D449D4255600CD3DE
:1036D000D4F8A000D4F8AC10043100F06DFA0E4B11
:1036E0001A68954238BF1D6038BDD4F8A400D4F8DC
:1036F000AC10BDE83840043100F05EBAD4F8AC102C
:1037000004F18C000431BDE8384000F047BA00F005
:10371000CBFAFEE7781200203C00002038B50D46B9
:1037200008B3174CD4F8AC10183100F037FAD4F8BD
:10373000AC00043000F05AFAD4F8C410D4F8AC202D
:10374000D4F8C4300D449D4255600FD3D4F8A00086
:10375000D4F8AC10043100F02FFA0A4B1A689542E5
:1037600038BF1D6038BD00F09FFAFEE7D4F8A40012
:10377000D4F8AC10BDE83840043100F01DBA00BFE9
:10378000781200203C000020C36870B5DD6865B386
:1037900005F11806164C304600F028FAD4F8C0306F
:1037A000EBB92E1D304600F021FAEB6AD4F8B820B0
:1037B00003EB8300934204EB8000314688BFC4F8DA
:1037C000B83000F0EBF9D4F8AC30E96ADA6A084BAB
:1037D000914286BF0120C3F8D000002070BD314661
:1037E00004F1640000F0DAF9EDE700F05DFAFEE7BD
:1037F0007812002008B538B1054BD3F8C820D3F8AB
:10380000C43080E80C0008BD00F04EFAFEE700BFAF
:103810007812002070B504460D4670B351B300F025
:1038200059FA2868164B421CD3F8C4101DD02268E0
:10383000D3F8C860B242626801D0914210D28E1AA9
:10384000B0420DD9411A0A44D3F8C810D3F8C43095
:103850002A60002584E80A0000F04EFA284670BD70
:10386000012500F049FA284670BD002500F044FA11
:10387000284670BD00F018FAFEE700F015FAFEE7E2
:1038800078120020024B0122C3F8D020704700BFFD
:1038900078120020014BD3F8AC007047781200205A
:1038A000064BD3F8B02032B1D3F8C030002B14BF90
:1038B0000020022070470120704700BF78120020CE
:1038C000F8B50446D8B11A4DC36AD5F8AC20D26A0F
:1038D000934214D28269002A05DBD5F8AC20D26A63
:1038E000C2F10302826103EB83036269104E05EBB0
:1038F00083039A4204D0D6F8AC30DB6AE362F8BDA9
:10390000271D384600F072F9D6F8AC30D6F8B8204A
:10391000DB6AE362934201D9C6F8B83003EB830057
:1039200005EB80003946BDE8F84000F037B900BF2C
:103930007812002038B50446F8B1C26A036C9A4286
:103940001BD0051D284600F051F9A2690B48236CD5
:10395000D0F8B810E362002AA4BFC3F10302A26149
:103960008B4288BFC0F8B83003EB830300EB8300C1
:103970002946BDE8384000F011B938BD7812002062
:10398000084B10B553F8204001212046FCF778FD84
:1039900020460021FCF774FD20460121BDE81040BF
:1039A000FCF752BD20B30008084B10B553F8204077
:1039B00001212046FCF764FD20460021FCF760FD54
:1039C00020460021BDE81040FCF73EBD20B30008B2
:1039D0002DE9F0431F4C204F4FEA800804EB080507
:1039E0000646AB69E86883B018430121FCF71EFD69
:1039F00004EB460495F8249057F82600218EB8442D
:103A00004A46FCF7B9FD02AD4A46D8F80C00218FB2
:103A1000FCF7B2FDB4F8403057F8260045F8083DF1
:103A200000220223694601268DF805308DF8043006
:103A30008DF807208DF80660FCF746FDB4F8483095
:103A4000D8F80C0000936946FCF73EFD03B0BDE8D2
:103A5000F08300BF20B3000840000020F0B5104EF6
:103A6000104F83B006EB4006054602ACB6F8403076
:103A700044F8083D07EB8505022257F820008DF831
:103A80000520694600238DF80430FCF71DFDB6F8CB
:103A90004830E86800936946FCF716FD03B0F0BDB6
:103AA00020B300084000002070B51A4C05462C4495
:103AB00082B00E4600F0FAF994F8503094F85410A1
:103AC00094F858208DF80030684601238DF80330B3
:103AD0008DF801108DF80220FDF704F9730217D458
:103AE00094F8602094F8643094F85C108DF801200C
:103AF00068468DF802308DF80010FDF7F3F8064B9C
:103B000003EB8505AB699A8892B242F480729A8081
:103B100002B070BD20B300084000002070B50F4D0A
:103B200082B0054402AC95F8503004F8083D0E46CA
:103B3000002368468DF801308DF802308DF803308F
:103B4000FDF7D0F8730206D495F85C308DF800309C
:103B50006846FDF7C7F802B070BD00BF20B300088B
:103B60000148FEF797BE00BF6400002008B5024878
:103B7000FFF7ECF8002008BD6400002000F1080306
:103B80004FF0FF310022816080E80C00C3600361C8
:103B9000704700BF00230361704700BF436830B423
:103BA0009A6805688A609C684B606A1C61609960CD
:103BB00030BC08610260704730B40D686B1C11D0D6
:103BC00000F1080200E01A4653681C68A542FAD2C8
:103BD00004684B60013499608A6051600861046038
:103BE00030BC704702695368F2E700BF42688168E1
:103BF000036910B4916081685C684A601A68844205
:103C000008BF5960013A002101615DF8044B1A6058
:103C10001046704705480068006880F3088862B65F
:103C2000BFF34F8FBFF36F8F00DF00BF08ED00E0E1
:103C3000DFF80C00016841F470010160704700007A
:103C400088ED00E010B4094B40F8081C4FF0807478
:103C50006FF0020140F8044C40F8202C40F80C3C76
:103C600040F8241C5DF8044B44387047B93C000808
:103C7000064B19680868B0E8F04F80F30988BFF375
:103C80006F8F4FF0000080F31188704724130020DD
:103C9000044B4FF080521A60BFF34F8FBFF36F8F0A
:103CA000704700BF04ED00E0EFF311804FF05001CA
:103CB00081F311887047002008B5054B1B6801335C
:103CC00002D0FFF7F1FFFEE7FFF7EEFFFEE700BFD0
:103CD000B400002008B5FFF7E7FF044B1A68013273
:103CE0001A60BFF34F8FBFF36F8F08BDB400002081
:103CF00080F31188704700BF08B5074B186818B1EA
:103D00000138186018B108BDFFF7CEFFFEE7BDE827
:103D10000840FFF7EDBF00BFB4000020EFF30980BB
:103D2000BFF36F8F124B1A681EF0100F08BF20ED03
:103D3000108A20E9F04F10604DF8043D4FF050001C
:103D400080F31188FFF7F6FB4FF0000080F3118835
:103D500008BC19680868B0E8F04F1EF0100F08BFE3
:103D6000B0EC108A80F30988BFF36F8F704700BFF3
:103D70002413002008B5FFF797FFFFF771FA18B179
:103D8000044B4FF080521A600020BDE80840FFF756
:103D9000AFBF00BF04ED00E0074B084A18680849B0
:103DA000084B10B4A2FB00408009013807220860CC
:103DB0005DF8044B1A60704710000020D34D62106C
:103DC00014E000E010E000E010B5234B2348197820
:103DD00082B0FF22C9B201911A701B78DBB28DF854
:103DE00003309DF803109DF8032001F050010723D4
:103DF0000170110643600ED5062300E00B469DF8C6
:103E000003205200D2B28DF803209DF80320120641
:103E100003F1FF31F2D4019C0F49114AE4B20C7056
:103E2000116841F47001116011681B0241F070418A
:103E3000116003F4E0634360FFF7AEFF094B00221B
:103E40001A60FFF7F5FE084B1A6842F040421A600C
:103E5000FFF7E0FEFFF730FF00E400E04C13002026
:103E600020ED00E0B400002034EF00E008B5EFF3EF
:103E700005820F2A08D80A4B0A4A5B68126802F4C6
:103E8000E0629A4209D808BD0749054B525C19788F
:103E90009142F1D9FFF708FFFEE7FFF705FFFEE7C4
:103EA0004C1300200CED00E0F0E300E04FF4407014
:103EB000FCF70EBF00207047F0B51C4C85B0FFF733
:103EC00009FF276897B1FFF717FF236843B3002363
:103ED00002228DE80C0002930393154815494FF414
:103EE0008272FFF725F8D8B105B0F0BD261D304627
:103EF00004F11805FFF742FE2846FFF73FFE3A4659
:103F00000A200C21E6622563FDF74CFE206050B1CB
:103F10000949FEF78FF9FFF7EFFE2368002BD6D192
:103F2000FFF7C2FEFEE7FFF7BFFEFEE754130020D7
:103F3000953F000814B400080CB4000830B5144DC7
:103F40002C6885B004B305290191029203900BDC23
:103F5000FFF7A6FC02280FD000222868134601A90B
:103F6000FDF75CFE05B030BD1A46204601A90023CE
:103F7000FDF7A0FF05B030BD2868089A01A900230D
:103F8000FDF74CFE05B030BD204605B030BD00BF8A
:103F9000541300202DE9F04FAB4C8BB0A0462746C0
:103FA000E36A1D68D5F1010538BF0025002D60D1F9
:103FB000DB68D3F800A0FFF73DF9FFF745F9636B25
:103FC0009842064658D3C8F8340015B9B24540F2B5
:103FD0008E80C6EB0A012068FEF758F9FFF7CCF98E
:103FE000002800F0818000221346206804A9FDF714
:103FF000F3FF0028D4D0049B002BF4DB069E7369EA
:1040000013B1301DFFF7F2FDFFF71EF9636B984205
:10401000824626D3049BC4F834A0092BE3D801229E
:1040200002FA03F313F4047F40F0EF8013F0C70F9C
:1040300040F0CA809B06D6D53046FEF713FAD2E789
:10404000DA68D2F80CB015680BF104094846FFF79E
:10405000CDFDDBF8242058469047DBF81C20012AD0
:1040600033D0E36A1A68002AEAD13A6BFA623B63FA
:10407000D0E74FF0000A9EE74FF0000A0EE0DB6841
:10408000DD68D3F800B005F104094846FFF7AEFD3E
:104090006B6A28469847EB69012B0AD0E36A1A68D5
:1040A000002AECD13A6B7E63FA623B63FFF764F956
:1040B00099E7AB695B445B4530D963496B60C86A7B
:1040C0002D614946FFF778FDE8E7DBF818202A4420
:1040D000AA4239D9CBF804205B4ACBF810B0D06A99
:1040E0004946FFF769FDBCE7FFF7D2FD7BE7FFF725
:1040F00043F9D8F82C30DB68D3F80CB00BF104018D
:1041000008460391FFF772FDDBF81C300399012B81
:1041100031D0DBF824305846984764E74A4A1368A0
:104120007BB1CDF81CA0CDF820B00995FFF7B8FB06
:10413000454900220868134607A9FDF76FFD0028CE
:10414000ACD1FFF7B1FDFEE73F4B1A6882B1002109
:1041500007910895CDF824B0FFF7A2FB3A49002259
:104160000868134607A9FDF759FD00287FF479AFC9
:10417000FFF79AFDFEE7DBF81830CBF810B00AEB3A
:1041800003029642CBF8042004D2D8F82C00FFF7A3
:1041900013FDBEE7CAEB0606B34247D8D8F8003095
:1041A0007BB10795CDF820A0CDF824B0FFF778FBC0
:1041B0002A462B46D8F8000007A9FDF72FFD002856
:1041C000A7D1FFF771FDFEE7059BB1693661CA18FB
:1041D000524572602FD8C3EB0A03994236D8736AEE
:1041E00030469847F369012B7FF4FDAEB269059B19
:1041F00000211A44009130460B46FFF79FFE00282D
:104200007FF4F1AEFFF750FDFEE7059BB3611BB3F2
:10421000534453457360366106F1040194BFD8F8E6
:104220003000D8F82C00FFF7C7FCDCE6D8F83000E7
:10423000FFF7C2FC6DE7534501D99342CFD9311D39
:10424000E06AFFF7B9FCCEE654130020311DD8F820
:104250003000FFF7B1FCC6E6FFF726FDFEE700BF22
:1042600082B08DED010A0199C1F3C7537F3B162B34
:1042700010DC002B1ADB114A42FA03F008420BD083
:104280004FF480021A410A4422EA000200EE102A8A
:1042900002B07047802B03D09DED010A02B0704739
:1042A000DDED017A37EEA70A02B07047013301F065
:1042B0000042EBD142F07E52E8E700BFFFFF7F00F3
:1042C000032A70B426D940EA01039B0711D0047871
:1042D0000D78AC4222D10244431C05E013F8014B97
:1042E00011F8015FAC4219D19342F7D1002070BCA4
:1042F00070470C4603461E682568AE4218462146A4
:1043000003F1040304F1040404D1043A032A184617
:104310002146F0D8002ADAD11046E8E7601B70BCCD
:10432000704700BF844641EA000313F003036DD1D8
:10433000403A41D351F8043B40F8043B51F8043B68
:1043400040F8043B51F8043B40F8043B51F8043B6F
:1043500040F8043B51F8043B40F8043B51F8043B5F
:1043600040F8043B51F8043B40F8043B51F8043B4F
:1043700040F8043B51F8043B40F8043B51F8043B3F
:1043800040F8043B51F8043B40F8043B51F8043B2F
:1043900040F8043B51F8043B40F8043B51F8043B1F
:1043A00040F8043B51F8043B40F8043B51F8043B0F
:1043B00040F8043B403ABDD2303211D351F8043BAF
:1043C00040F8043B51F8043B40F8043B51F8043BEF
:1043D00040F8043B51F8043B40F8043B103AEDD25E
:1043E0000C3205D351F8043B40F8043B043AF9D2AF
:1043F000043208D0D2071CBF11F8013B00F8013B82
:1044000001D30B8803806046704700BF082A13D38E
:104410008B078DD010F003038AD0C3F10403D21AA6
:10442000DB071CBF11F8013B00F8013B80D331F8DA
:10443000023B20F8023B7BE7043AD9D3013A11F85A
:10444000013B00F8013BF9D20B7803704B784370C5
:104450008B7883706046704770B4840746D0541ED2
:10446000002A41D0CDB2034602E0621EE4B31446F6
:1044700003F8015B9A07F8D1032C2ED9CDB245EA97
:1044800005250F2C45EA054519D903F110022646EA
:10449000103E0F2E42F8105C42F80C5C42F8085CAB
:1044A00042F8045C02F11002F2D8A4F1100222F0EA
:1044B0000F0204F00F041032032C13440DD91E46D2
:1044C0002246043A032A46F8045BFAD8221F22F057
:1044D00003020432134404F003042CB1C9B21C4497
:1044E00003F8011BA342FBD170BC7047144603467E
:1044F000C2E700BF00000000DE931F3F82C5793F86
:104500000000803FF6975D3FFBAE483FC824533F15
:10451000F67A673FBF9A6B3F45815E3F0B63533F1F
:104520000C3C573F11C7623FCDAF663F28495F3F04
:10453000D847573F4BB0583F499D603FE965643FBE
:104540007FBC5F3FFF5B593F1C7C593F325A5F3F46
:104550005C03633FA800603F18B25A3F03095A3F0B
:104560008C845E3F520A623FA228603F8BA65B3F6D
:10457000C4775A3F81EC5D3FF54A613F9B3D603F08
:10458000AA605C3F73D75A3F187D5D3F53AE603FD2
:104590008143603FC7F45C3FF52D5B3F35295D3FAC
:1045A0004A29603F423E603F056E5D3F397F5B3F79
:1045B0004BEA5C3F4AB55F3FD72F603FF2D25D3F89
:1045C0008ECC5B3F6ABC5C3F664E5F3F371A603FF4
:1045D000D5265E3F9C165C3F4E9C5C3FA6F25E3F3C
:1045E00009FE5F3F4C6C5E3FB35E5C3F55875C3FAE
:1045F00012A05E3F9CDC5F3FF8A55E3FD3A45C3F0A
:10460000D97C5C3F04565E3F9AB65F3F28D55E3F3B
:10461000ABE75C3F897B5C3FD3135E3F508D5F3FD0
:10462000DBF95E3FE5275D3F6F815C3F7FD95D3FF2
:1046300067615F3F09165F3FD8645D3F8A8E5C3FCC
:1046400061A65D3F87335F3FB3295F3F849E5D3F37
:10465000E4A05C3F787A5D3F57045F3F7E355F3F63
:10466000E9D45D3F24B95C3FC5555D3F80D45E3FD2
:10467000153A5F3FB8065E3F52D55C3FA0375D3FBD
:10468000A9A45E3FC5385F3FF0335E3FC7F45C3F8F
:1046900008205D3F21765E3FE8305F3F925C5E3FE1
:1046A000DB165D3F560E5D3FE9485E3FCD235F3F21
:1046B0009D805E3F8E3B5D3F32035D3FA81D5E3FA8
:1046C0001B125F3F6B9F5E3F91615D3FF4FD5C3F5E
:1046D00006F55D3F7AFC5E3FFAB85E3F3C885D3F81
:1046E0009BFE5C3FABCF5D3FEBE25E3F4BCD5E3F61
:1046F0003EAE5D3FDA035D3FEFAC5D3FBDC65E3F62
:104700005DDC5E3F41D45D3F560E5D3FC98E5D3F2F
:10471000F0A75E3F32E65E3FF4F85D3F691D5D3F06
:10472000EB735D3FD3875E3FC8EA5E3F581C5E3F38
:10473000C22F5D3FA25D5D3F66665E3FC8EA5E3F99
:104740001D3D5E3F63455D3FF14B5D3FFA445E3F7B
:1047500032E65E3F425B5E3F4A5E5D3FD53E5D3F77
:104760008E235E3F05DD5E3F21765E3F29795D3F0A
:1047700050365D3F71035E3FEACF5E3FB98D5E3FCD
:10478000FF955D3FBA315D3FFCE35D3FE0BE5E3FBC
:1047900062A15E3F24B45D3F61325D3F7EC65D3FF6
:1047A00036AB5E3F1CB15E3F4AD25D3F50365D3F47
:1047B0009FAB5D3FEE945E3FE8BC5E3F6FF05D3FB8
:1047C000D53E5D3F60935D3F077C5E3FC6C45E3F64
:1047D000950E5E3F494B5D3FBF7D5D3F28615E3F6B
:1047E0000CC85E3FC32A5E3F035B5D3F666B5D3F67
:1047F000A2455E3F0CC85E3F4A465E3F5D6D5D3F31
:10480000FB5C5D3F74295E3F76C35E3F315F5E3F78
:10481000FD825D3F7E525D3F450D5E3FF1BA5E3FDA
:1048200021765E3F959A5D3F494B5D3F17F15D3FB5
:1048300025AF5E3FCA895E3F7DB35D3FAA485D3FBD
:1048400039D65D3F12A05E3FD49A5E3FB3CD5D3F47
:1048500052495D3FA9BC5D3FB98D5E3FF0A75E3F09
:104860003AE95D3FE84D5D3F6AA45D3F68795E3F90
:10487000C4B15E3F19045E3F6D565D3F718F5D3F71
:1048800078625E3F52B85E3FF71E5E3F39625D3F21
:10489000707C5D3F90495E3F49BA5E3F2E395E3F76
:1048A0004C715D3F0D6C5D3F01305E3FFAB85E3F7D
:1048B00015525E3FA5835D3F9A5F5D3FCA155E3F1F
:1048C000BCB35E3F05695E3FF6975D3F6D565D3F49
:1048D000ECFA5D3F36AB5E3F567D5E3FE6AE5D3F38
:1048E0002F515D3FB5E05D3F6B9F5E3FB08F5E3FF8
:1048F00026C75D3F374F5D3F26C75D3FB08F5E3FA8
:104900006B9F5E3FB5E05D3F2F515D3FE6AE5D3F83
:10491000567D5E3F36AB5E3FECFA5D3F6D565D3FC8
:10492000F6975D3F05695E3FBCB35E3FCA155E3FCB
:104930009A5F5D3FA5835D3F15525E3FFAB85E3FCB
:1049400001305E3F0D6C5D3F4C715D3F2E395E3F27
:1049500049BA5E3F90495E3F707C5D3F39625D3F82
:10496000F71E5E3F52B85E3F78625E3F718F5D3FDB
:104970006D565D3F19045E3FC4B15E3F68795E3F8E
:104980006AA45D3FE84D5D3F3AE95D3FF0A75E3FB9
:10499000B98D5E3FA9BC5D3F52495D3FB3CD5D3FE0
:1049A000D49A5E3F12A05E3F39D65D3FAA485D3F74
:1049B0007DB35D3FCA895E3F25AF5E3F17F15D3F26
:1049C000494B5D3F959A5D3F21765E3FF1BA5E3F70
:1049D000450D5E3F7E525D3FFD825D3F315F5E3F34
:1049E00076C35E3F74295E3FFB5C5D3F5D6D5D3F5E
:1049F0004A465E3F0CC85E3FA2455E3F666B5D3F28
:104A0000035B5D3FC32A5E3F0CC85E3F28615E3F8B
:104A1000BF7D5D3F494B5D3F950E5E3FC6C45E3F27
:104A2000077C5E3F60935D3FD53E5D3F6FF05D3F2D
:104A3000E8BC5E3FEE945E3F9FAB5D3F50365D3F0E
:104A40004AD25D3F1CB15E3F36AB5E3F7EC65D3FE6
:104A500061325D3F24B45D3F62A15E3FE0BE5E3FD8
:104A6000FCE35D3FBA315D3FFF955D3FB98D5E3F31
:104A7000EACF5E3F71035E3F50365D3F29795D3F6F
:104A800021765E3F05DD5E3F8E235E3FD53E5D3F76
:104A90004A5E5D3F425B5E3F32E65E3FFA445E3F08
:104AA000F14B5D3F63455D3F1D3D5E3FC8EA5E3FA4
:104AB00066665E3FA25D5D3FC22F5D3F581C5E3F54
:104AC000C8EA5E3FD3875E3FEB735D3F691D5D3F84
:104AD000F4F85D3F32E65E3FF0A75E3FC98E5D3F72
:104AE000560E5D3F41D45D3F5DDC5E3FBDC65E3F1F
:104AF000EFAC5D3FDA035D3F3EAE5D3F4BCD5E3FC9
:104B0000EBE25E3FABCF5D3F9BFE5C3F3C885D3F91
:104B1000FAB85E3F7AFC5E3F06F55D3FF4FD5C3F10
:104B200091615D3F6B9F5E3F1B125F3FA81D5E3F23
:104B300032035D3F8E3B5D3F9D805E3FCD235F3FF7
:104B4000E9485E3F560E5D3FDB165D3F925C5E3F7F
:104B5000E8305F3F21765E3F08205D3FC7F45C3F51
:104B6000F0335E3FC5385F3FA9A45E3FA0375D3F8D
:104B700052D55C3FB8065E3F153A5F3F80D45E3F3A
:104B8000C5555D3F24B95C3FE9D45D3F7E355F3F4D
:104B900057045F3F787A5D3FE4A05C3F849E5D3FB1
:104BA000B3295F3F87335F3F61A65D3F8A8E5C3FDD
:104BB000D8645D3F09165F3F67615F3F7FD95D3F06
:104BC0006F815C3FE5275D3FDBF95E3F508D5F3FC6
:104BD000D3135E3F897B5C3FABE75C3F28D55E3FEC
:104BE0009AB65F3F04565E3FD97C5C3FD3A45C3FDE
:104BF000F8A55E3F9CDC5F3F12A05E3F55875C3F9F
:104C0000B35E5C3F4C6C5E3F09FE5F3FA6F25E3FC9
:104C10004E9C5C3F9C165C3FD5265E3F371A603F3A
:104C2000664E5F3F6ABC5C3F8ECC5B3FF2D25D3F1D
:104C3000D72F603F4AB55F3F4BEA5C3F397F5B3F10
:104C4000056E5D3F423E603F4A29603F35295D3F2A
:104C5000F52D5B3FC7F45C3F8143603F53AE603F3F
:104C6000187D5D3F73D75A3FAA605C3F9B3D603F14
:104C7000F54A613F81EC5D3FC4775A3F8BA65B3FAD
:104C8000A228603F520A623F8C845E3F03095A3F6C
:104C900018B25A3FA800603F5C03633F325A5F3F3F
:104CA0001C7C593FFF5B593F7FBC5F3FE965643F18
:104CB000499D603F4BB0583FD847573F28495F3F19
:104CC000CDAF663F11C7623F0C3C573F0B63533F6C
:104CD00045815E3FBF9A6B3FF67A673FC824533FDA
:104CE000FBAE483FF6975D3F0000803F82C5793FAD
:104CF000DE931F3F00000000DE931FBF82C579BF17
:104D0000000080BFF6975DBFFBAE48BFC82453BF0D
:104D1000F67A67BFBF9A6BBF45815EBF0B6353BF17
:104D20000C3C57BF11C762BFCDAF66BF28495FBFFC
:104D3000D84757BF4BB058BF499D60BFE96564BFB6
:104D40007FBC5FBFFF5B59BF1C7C59BF325A5FBF3E
:104D50005C0363BFA80060BF18B25ABF03095ABF03
:104D60008C845EBF520A62BFA22860BF8BA65BBF65
:104D7000C4775ABF81EC5DBFF54A61BF9B3D60BF00
:104D8000AA605CBF73D75ABF187D5DBF53AE60BFCA
:104D9000814360BFC7F45CBFF52D5BBF35295DBFA4
:104DA0004A2960BF423E60BF056E5DBF397F5BBF71
:104DB0004BEA5CBF4AB55FBFD72F60BFF2D25DBF81
:104DC0008ECC5BBF6ABC5CBF664E5FBF371A60BFEC
:104DD000D5265EBF9C165CBF4E9C5CBFA6F25EBF34
:104DE00009FE5FBF4C6C5EBFB35E5CBF55875CBFA6
:104DF00012A05EBF9CDC5FBFF8A55EBFD3A45CBF02
:104E0000D97C5CBF04565EBF9AB65FBF28D55EBF33
:104E1000ABE75CBF897B5CBFD3135EBF508D5FBFC8
:104E2000DBF95EBFE5275DBF6F815CBF7FD95DBFEA
:104E300067615FBF09165FBFD8645DBF8A8E5CBFC4
:104E400061A65DBF87335FBFB3295FBF849E5DBF2F
:104E5000E4A05CBF787A5DBF57045FBF7E355FBF5B
:104E6000E9D45DBF24B95CBFC5555DBF80D45EBFCA
:104E7000153A5FBFB8065EBF52D55CBFA0375DBFB5
:104E8000A9A45EBFC5385FBFF0335EBFC7F45CBF87
:104E900008205DBF21765EBFE8305FBF925C5EBFD9
:104EA000DB165DBF560E5DBFE9485EBFCD235FBF19
:104EB0009D805EBF8E3B5DBF32035DBFA81D5EBFA0
:104EC0001B125FBF6B9F5EBF91615DBFF4FD5CBF56
:104ED00006F55DBF7AFC5EBFFAB85EBF3C885DBF79
:104EE0009BFE5CBFABCF5DBFEBE25EBF4BCD5EBF59
:104EF0003EAE5DBFDA035DBFEFAC5DBFBDC65EBF5A
:104F00005DDC5EBF41D45DBF560E5DBFC98E5DBF27
:104F1000F0A75EBF32E65EBFF4F85DBF691D5DBFFE
:104F2000EB735DBFD3875EBFC8EA5EBF581C5EBF30
:104F3000C22F5DBFA25D5DBF66665EBFC8EA5EBF91
:104F40001D3D5EBF63455DBFF14B5DBFFA445EBF73
:104F500032E65EBF425B5EBF4A5E5DBFD53E5DBF6F
:104F60008E235EBF05DD5EBF21765EBF29795DBF02
:104F700050365DBF71035EBFEACF5EBFB98D5EBFC5
:104F8000FF955DBFBA315DBFFCE35DBFE0BE5EBFB4
:104F900062A15EBF24B45DBF61325DBF7EC65DBFEE
:104FA00036AB5EBF1CB15EBF4AD25DBF50365DBF3F
:104FB0009FAB5DBFEE945EBFE8BC5EBF6FF05DBFB0
:104FC000D53E5DBF60935DBF077C5EBFC6C45EBF5C
:104FD000950E5EBF494B5DBFBF7D5DBF28615EBF63
:104FE0000CC85EBFC32A5EBF035B5DBF666B5DBF5F
:104FF000A2455EBF0CC85EBF4A465EBF5D6D5DBF29
:10500000FB5C5DBF74295EBF76C35EBF315F5EBF70
:10501000FD825DBF7E525DBF450D5EBFF1BA5EBFD2
:1050200021765EBF959A5DBF494B5DBF17F15DBFAD
:1050300025AF5EBFCA895EBF7DB35DBFAA485DBFB5
:1050400039D65DBF12A05EBFD49A5EBFB3CD5DBF3F
:1050500052495DBFA9BC5DBFB98D5EBFF0A75EBF01
:105060003AE95DBFE84D5DBF6AA45DBF68795EBF88
:10507000C4B15EBF19045EBF6D565DBF718F5DBF69
:1050800078625EBF52B85EBFF71E5EBF39625DBF19
:10509000707C5DBF90495EBF49BA5EBF2E395EBF6E
:1050A0004C715DBF0D6C5DBF01305EBFFAB85EBF75
:1050B00015525EBFA5835DBF9A5F5DBFCA155EBF17
:1050C000BCB35EBF05695EBFF6975DBF6D565DBF41
:1050D000ECFA5DBF36AB5EBF567D5EBFE6AE5DBF30
:1050E0002F515DBFB5E05DBF6B9F5EBFB08F5EBFF0
:1050F00026C75DBF374F5DBF26C75DBFB08F5EBFA0
:105100006B9F5EBFB5E05DBF2F515DBFE6AE5DBF7B
:10511000567D5EBF36AB5EBFECFA5DBF6D565DBFC0
:10512000F6975DBF05695EBFBCB35EBFCA155EBFC3
:105130009A5F5DBFA5835DBF15525EBFFAB85EBFC3
:1051400001305EBF0D6C5DBF4C715DBF2E395EBF1F
:1051500049BA5EBF90495EBF707C5DBF39625DBF7A
:10516000F71E5EBF52B85EBF78625EBF718F5DBFD3
:105170006D565DBF19045EBFC4B15EBF68795EBF86
:105180006AA45DBFE84D5DBF3AE95DBFF0A75EBFB1
:10519000B98D5EBFA9BC5DBF52495DBFB3CD5DBFD8
:1051A000D49A5EBF12A05EBF39D65DBFAA485DBF6C
:1051B0007DB35DBFCA895EBF25AF5EBF17F15DBF1E
:1051C000494B5DBF959A5DBF21765EBFF1BA5EBF68
:1051D000450D5EBF7E525DBFFD825DBF315F5EBF2C
:1051E00076C35EBF74295EBFFB5C5DBF5D6D5DBF56
:1051F0004A465EBF0CC85EBFA2455EBF666B5DBF20
:10520000035B5DBFC32A5EBF0CC85EBF28615EBF83
:10521000BF7D5DBF494B5DBF950E5EBFC6C45EBF1F
:10522000077C5EBF60935DBFD53E5DBF6FF05DBF25
:10523000E8BC5EBFEE945EBF9FAB5DBF50365DBF06
:105240004AD25DBF1CB15EBF36AB5EBF7EC65DBFDE
:1052500061325DBF24B45DBF62A15EBFE0BE5EBFD0
:10526000FCE35DBFBA315DBFFF955DBFB98D5EBF29
:10527000EACF5EBF71035EBF50365DBF29795DBF67
:1052800021765EBF05DD5EBF8E235EBFD53E5DBF6E
:105290004A5E5DBF425B5EBF32E65EBFFA445EBF00
:1052A000F14B5DBF63455DBF1D3D5EBFC8EA5EBF9C
:1052B00066665EBFA25D5DBFC22F5DBF581C5EBF4C
:1052C000C8EA5EBFD3875EBFEB735DBF691D5DBF7C
:1052D000F4F85DBF32E65EBFF0A75EBFC98E5DBF6A
:1052E000560E5DBF41D45DBF5DDC5EBFBDC65EBF17
:1052F000EFAC5DBFDA035DBF3EAE5DBF4BCD5EBFC1
:10530000EBE25EBFABCF5DBF9BFE5CBF3C885DBF89
:10531000FAB85EBF7AFC5EBF06F55DBFF4FD5CBF08
:1053200091615DBF6B9F5EBF1B125FBFA81D5EBF1B
:1053300032035DBF8E3B5DBF9D805EBFCD235FBFEF
:10534000E9485EBF560E5DBFDB165DBF925C5EBF77
:10535000E8305FBF21765EBF08205DBFC7F45CBF49
:10536000F0335EBFC5385FBFA9A45EBFA0375DBF85
:1053700052D55CBFB8065EBF153A5FBF80D45EBF32
:10538000C5555DBF24B95CBFE9D45DBF7E355FBF45
:1053900057045FBF787A5DBFE4A05CBF849E5DBFA9
:1053A000B3295FBF87335FBF61A65DBF8A8E5CBFD5
:1053B000D8645DBF09165FBF67615FBF7FD95DBFFE
:1053C0006F815CBFE5275DBFDBF95EBF508D5FBFBE
:1053D000D3135EBF897B5CBFABE75CBF28D55EBFE4
:1053E0009AB65FBF04565EBFD97C5CBFD3A45CBFD6
:1053F000F8A55EBF9CDC5FBF12A05EBF55875CBF97
:10540000B35E5CBF4C6C5EBF09FE5FBFA6F25EBFC1
:105410004E9C5CBF9C165CBFD5265EBF371A60BF32
:10542000664E5FBF6ABC5CBF8ECC5BBFF2D25DBF15
:10543000D72F60BF4AB55FBF4BEA5CBF397F5BBF08
:10544000056E5DBF423E60BF4A2960BF35295DBF22
:10545000F52D5BBFC7F45CBF814360BF53AE60BF37
:10546000187D5DBF73D75ABFAA605CBF9B3D60BF0C
:10547000F54A61BF81EC5DBFC4775ABF8BA65BBFA5
:10548000A22860BF520A62BF8C845EBF03095ABF64
:1054900018B25ABFA80060BF5C0363BF325A5FBF37
:1054A0001C7C59BFFF5B59BF7FBC5FBFE96564BF10
:1054B000499D60BF4BB058BFD84757BF28495FBF11
:1054C000CDAF66BF11C762BF0C3C57BF0B6353BF64
:1054D00045815EBFBF9A6BBFF67A67BFC82453BFD2
:1054E000FBAE48BFF6975DBF000080BF82C579BFA5
:1054F000DE931FBF0000000024977F3B751F003C18
:105500001283403C5F5E803C4451A03C2159C03C2A
:10551000FE60E03C6649003DD157103D4451203DBE
:105520003255303D2159403D0872503D7380603DF9
:105530006284703DEA3E803DE140883D554D903D9E
:105540008B54983D8256A03D3B53A83D3255B03D0B
:10555000A661B83DDC68C03DD36AC83D8C67D03DCC
:105560008369D83DF775E03D2C7DE83D247FF03D13
:105570001B81F83DEA3E003E8542043EBF48083E9E
:10558000594C0C3EB64A103E1349143EAD4C183EE1
:10559000E7521C3E8256203EDE54243EDA55283E19
:1055A000D6562C3E105D303EAA60343E075F383E32
:1055B00003603C3EFE60403E3867443ED36A483E4E
:1055C000CF6B4C3E2B6A503E276B543E6171583E68
:1055D000FB745C3EF775603E5474643E4F75683EE4
:1055E000897B6C3E247F703E1F80743E7C7E783EBB
:1055F000787F7C3ED942803EA644823E2445843E4C
:105600005244863ED044883EED478A3EBA498C3E9D
:10561000884B8E3EB64A903EE449923E014D943E00
:10562000CF4E963E9C50983ECA4F9A3EF94E9C3EB5
:1056300015529E3EE353A03EB055A23EDE54A43E1A
:105640005C55A63EDA55A83EF758AA3EC45AAC3E71
:10565000F359AE3E715AB03EEE5AB23E0B5EB43EC6
:10566000D95FB63E5760B83E855FBA3E0360BC3E28
:105670002063BE3EED64C03E6B65C23E9964C43E8D
:105680001765C63E3468C83E016ACA3E7F6ACC3E92
:10569000AD69CE3E2B6AD03E486DD23E6570D43E99
:1056A000936FD63EC16ED83E3F6FDA3E5C72DC3EF1
:1056B0007975DE3EF775E03E2575E23E5474E43EB2
:1056C0007077E63E8D7AE83E0B7BEA3E3A7AEC3E16
:1056D0006879EE3E857CF03EA27FF23E1F80F43E6C
:1056E0004E7FF63E7C7EF83E9981FA3EB684FC3EC3
:1056F0003485FE3ED942003F7042013FAF42023F37
:10570000E544033FCC45043F6345053FFA44063F6B
:105710003945073FC746083F5648093FED470A3F0E
:1057200084470B3FC3470C3F52490D3FE04A0E3FB1
:10573000774A0F3F0E4A103F4D4A113FDC4B123F54
:105740006A4D133FA94D143F984C153FD74C163F57
:10575000664E173FF44F183F3350193FCA4F1A3F58
:10576000614F1B3FF0501C3F7E521D3FBD521E3FFC
:1057700054521F3FEC51203F7A53213F0855223F9E
:10578000EF55233FDE54243F7654253F0456263FF1
:105790009357273F7958283F1058293F00572A3FF1
:1057A000E6572B3F1D5A2C3F035B2D3F9B5A2E3F44
:1057B0008A592F3F715A303FA75C313F355E323FE7
:1057C000255D333F145C343FFB5C353F315F363F32
:1057D000BF60373F5760383F465F393F855F3A3F8C
:1057E000BB613B3F49633C3FE1623D3FD0613E3F8F
:1057F00067613F3F9D63403FD465413F1366423F31
:105800005A64433FF163443F2766453F5E68463F25
:105810009D68473FE466483F7B66493FB2684A3F20
:10582000E86A4B3FCF6B4C3F166A4D3F05694E3FD0
:10583000946A4F3F1A6E503F006F513FA06C523F29
:10584000906B533F1E6D543FA470553F8B71563F74
:10585000D26F573F726D583F006F593F86725A3F63
:10586000BC745B3F04735C3FFC6F5D3FE3705E3F65
:1058700010755F3FEE77603F3676613F8672623F1C
:10588000C572633F9A77643F207B653F6879663FC6
:105890001075673FA774683F7D79693F527E6A3F04
:1058A0009A7C6B3F9A776C3FE2756D3F5F7B6E3FF2
:1058B0002C826F3F1B81703F7D79713F7576723FFF
:1058C000417D733FAD86743F4486753F5F7B763F75
:1058D0001075773F7C7E783F758E793FB48E7A3F26
:1058E000FB797B3F276B7C3FB77F7D3F8FAA7E3F55
:1058F000A99F7F3F0000803FA99F7F3F8FAA7E3FE7
:10590000B77F7D3F276B7C3FFB797B3FB48E7A3F2F
:10591000758E793F7C7E783F1075773F5F7B763F51
:105920004486753FAD86743F417D733F7576723F07
:105930007D79713F1B81703F2C826F3F5F7B6E3F93
:10594000E2756D3F9A776C3F9A7C6B3F527E6A3F5F
:105950007D79693FA774683F1075673F6879663F36
:10596000207B653F9A77643FC572633F8672623FD2
:105970003676613FEE77603F10755F3FE3705E3FC4
:10598000FC6F5D3F04735C3FBC745B3F86725A3FA3
:10599000006F593F726D583FD26F573F8B71563F22
:1059A000A470553F1E6D543F906B533FA06C523F07
:1059B000006F513F1A6E503F946A4F3F05694E3F4A
:1059C000166A4D3FCF6B4C3FE86A4B3FB2684A3F87
:1059D0007B66493FE466483F9D68473F5E68463FB7
:1059E0002766453FF163443F5A64433F1366423F95
:1059F000D465413F9D63403F67613F3FD0613E3F7B
:105A0000E1623D3F49633C3FBB613B3F855F3A3FBD
:105A1000465F393F5760383FBF60373F315F363FA1
:105A2000FB5C353F145C343F255D333F355E323FD0
:105A3000A75C313F715A303F8A592F3F9B5A2E3F06
:105A4000035B2D3F1D5A2C3FE6572B3F00572A3F43
:105A50001058293F7958283F9357273F0456263F2F
:105A60007654253FDE54243FEF55233F0855223F0F
:105A70007A53213FEC51203F54521F3FBD521E3FED
:105A80007E521D3FF0501C3F614F1B3FCA4F1A3FD3
:105A90003350193FF44F183F664E173FD74C163F0F
:105AA000984C153FA94D143F6A4D133FDC4B123FF4
:105AB0004D4A113F0E4A103F774A0F3FE04A0E3FD2
:105AC00052490D3FC3470C3F84470B3FED470A3F08
:105AD0005648093FC746083F3945073FFA44063F45
